:100B970044696769746520612073656E68613A000E
:100BA70041636573736F206C6962657261646F215D
:0C0BB700006572726F752100313233341A
:100C20000119000D083132333435363738392A305E
:080C3000230004150000000080
:100A9800D2927F017E00120AB7C2920F120AB7E9FA
:0F0AA800C454F0FFE590540F4FF590D2927F01A8
:100AB700E4FDFCC3ED9FEC9E5015E4FBFA0BBB0075
:0F0AC700010AEB64704A70F50DBD00010C80E46C
:010AD60022FD
:100BEE00A907E954F0FFE590540F4FF590C2931208
:090BFE000A98C2927F05020AB7B1
:100C0700A907E954F0FFE590540F4FF590D29312DE
:090C17000A98C2927F05020AB797
:100AD70020840F7F2C7E01120AB73084FD7E007FB1
:100AE700042220850F7F2C7E01120AB73085FD7EF8
:100AF700007F052220860F7F2C7E01120AB73086E1
:0A0B0700FD7E007F0622E4FEFF22BF
:040B3F008F828E8390
:100B4300E4FDFC120AD7AC06AD07ED4C6016AF828C
:100B5300EF75F003A4C39DFF740E2FF8E6F5197E1D
:070B6300007F0122E4FEFF08
:010B6A002268
:100A4600C283E4FFFE120B3FEF4E6004D283803771
:100A5600D283C2827F017E00120B3FEF4E6004D22A
:100A6600828024D282C2817F027E00120B3FEF4E2B
:100A76006004D2818011D281C2807F037E00120B76
:100A86003FEF4E6007D2807E007F0122D280E4FED7
:020A9600FF223D
:060BC3008B258A2689271C
:100BC900E4F528F529AB25AA26A9278529828528B0
:100BD900831208F6FF600D120C070529E52970E557
:040BE900052880E17A
:010BED0022E5
:100B11008F208D218B228A238924E5207008E521ED
:100B2100540F4480800BE520B4010AE521540744A9
:0E0B3100C0FF120BEEAB22AA23A924020BC3B5
:100B6B007F147E00120AB77F02120BEE7F28120B46
:100B7B00EE7F0C120BEE7F06120BEE7F01120BEECB
:0C0B8B007F80120BEED284D285D286222D
:10092300781A7C007D007BFF7A0B79BF7E007F0401
:100933001208D0E4F51EF51F120B6B7BFF7A0B79BF
:1009430097120BC37FC0120BEEE4F51EF51FC3E530
:100953001F9404E51E64809480501C120A46EF4ED7
:1009630060EC7F2A120C07051FE51F7002051E1499
:100973002415F8A61980D7E4F51EF51FAF1F741AC6
:100983002FF8E6FE74152FF8E6B5060E051FE51FD2
:100993007002051E6404451E70E2E51F6404451ED3
:1009A3007BFF70067A0B79A780057A0B79B8E4FD93
:0709B3007F01120B1180FE11
:030000000209BA38
:0C09BA00787FE4F6D8FD758129020A015F
:10080000E709F608DFFA8046E709F208DFFA803EDA
:1008100088828C83E709F0A3DFFA8032E309F608C7
:10082000DFFA8078E309F208DFFA807088828C832F
:10083000E309F0A3DFFA806489828A83E0A3F608E3
:10084000DFFA805889828A83E0A3F208DFFA804CBD
:1008500080D280FA80C680D4806980F28033801094
:1008600080A680EA809A80A880DA80E280CA8033FD
:1008700089828A83ECFAE493A3C8C582C8CCC58375
:10088000CCF0A3C8C582C8CCC583CCDFE9DEE78045
:100890000D89828A83E493A3F608DFF9ECFAA9F0C4
:1008A000EDFB2289828A83ECFAE0A3C8C582C8CC1A
:1008B000C583CCF0A3C8C582C8CCC583CCDFEADE33
:1008C000E880DB89828A83E493A3F208DFF980CC95
:1008D00088F0EF60010E4E60C388F0ED2402B4048E
:1008E0000050B9F582EB2402B4040050AF23234535
:0608F00082239008507302
:1008F600BB010CE58229F582E5833AF583E02250B7
:1009060006E92582F8E622BBFE06E92582F8E22200
:0D091600E58229F582E5833AF583E493221A
:1009C600020923E493A3F8E493A34003F68001F21B
:1009D60008DFF48029E493A3F85407240CC8C33332
:1009E600C4540F4420C8834004F456800146F6DF01
:1009F600E4800B0102040810204080900C20E47E65
:100A0600019360BCA3FF543F30E509541FFEE493F5
:100A1600A360010ECF54C025E060A840B8E493A3BC
:100A2600FAE493A3F8E493A3C8C582C8CAC583CAE7
:100A3600F0A3C8C582C8CAC583CADFE9DEE780BE9F
:010C380000BB
:00000001FF
