:100D99000380028033983FF83398038003803398A7
:100DA9003FF833980380000003800BA00FE00BA0ED
:100DB9000380038003800BA00FE00BA003800000D9
:100DC90000000000000005000A80004028004010D3
:100DD90020001410094002800000000000000000FB
:100DE90000000000000000001FE01BE011A01BF83C
:100DF9001FF81FF804400000000000000000000078
:100F6700012300012100013A32013B32013CF0012B
:100F770039000122360237000001250001240AC189
:060F870001C1000136006B
:100E6400EF1313543FFEC3940F400CE523240F5497
:100E74000F2426F8E6FF22E5232EFD540FFCED0493
:100E8400540FFE74262CF8E6FB74262EF8E6C39B5A
:100E9400FEEF5403FD3395E0FCEEFF3395E0FE12C4
:0F0EA4000FE4EF7802CEA2E713CE13D8F82BFF9E
:010EB300221C
:100F8E00E4FDFCC3ED9FEC9E5015E4FBFA0BBB0099
:0F0F9E00010AEB64704A70F50DBD00010C80E490
:010FAD002221
:060FF600C2A18FB0D2A2DF
:080FFC007F0CAE071FEE70FA36
:0110040022C9
:08101F00C2A0120FF6C2A222CA
:100FCB00AF02C4540FFD120FAEE510FF120FDCAFD2
:010FDB001104
:080FDC00D2A0120FF6C2A222FE
:100EF100D2A3C2A57F0A7E00120F8ED2A57F321225
:100F01000F8E7F3012101F7F057E00120F8E7F0C17
:100F110012101F7F0112101F7F0F7E00120F8E7F94
:0B0F21003612101FD284D285D2862227
:100F2C007F3612101FE4FDEDC394205004AF0580F2
:100F3C0004ED24E0FFEF4480FF12101FEDC394205A
:100F4C0050047F8080027F8812101FE4FCE4FF12A3
:0A0F5C000FDC0CBC10F70DBD40CDFA
:010F66002268
:100E090012101F7F4B120FDC7F4D120FDC7F3A123D
:060E19000FDCAF38AE371C
:040E1F00AD07AC0669
:100E2300E4FFC3ED9464EC9400400B749C2DFD74BB
:100E3300FF3CFC0F80ECEF2430FF120FDCE4FFC318
:100E4300ED940AEC9400400B74F62DFD74FF3CFC0A
:100E53000F80ECEF2430FF120FDCED2430FF020F84
:010E6300DCB2
:100EB4007F3012101F7F8D120E097F9D12101F7F2D
:100EC40041120FDC7F43120FDC7F3A120FDCE52561
:100ED40075F00A842430FF120FDCE52575F00A84CE
:0D0EE400E5F02430FF120FDC7F3602101FF6
:100FAE00AC07EC541F4480FF12101FECC39420506A
:0D0FBE00047F8080027F88EF2DFF02101F4E
:100A73007A0D7BC9751210E4F51375143FF51575DE
:060A8300167F7D2DAF3A45
:080A89008D0F8A108B11A907E3
:100A9100E9D394704003020BC4E9240DFFE433FE53
:100AA100C3EF95157480F86E985003020BC4E9D317
:100AB10095164003020BC4E9C4540FF517E9540F0E
:100AC100F518E4F9E9C395124003020BC4E9FF33B9
:100AD10095E0FEAD0FED3395E0FCED2FEC3EC364E8
:100AE1008094805003020BC0E50F29F519D3943F80
:100AF1004003020BC0E519C395135003020BC0E577
:100B010019D395144003020BC0E925E0FDE433FC41
:100B1100E5112DF582E5103CF583E493FEED24010A
:100B2100FDE43CFCE5112DF582E5103CF583E493F1
:100B3100FDAC06E518C394084018ECFF7E00E518EB
:100B410024F8FBEFA803088005CEC313CE13D8F910
:100B5100800FAE04EDA818088005CEC313CE13D8BC
:100B6100F9F51B8E1AE5186018C374109518FFAEBD
:100B710004EDA807088005C333CE33CED8F9FF8032
:100B8100047E007F00AB07AA06E51B451A6012AD83
:100B910017AF19120FAEE51AFF120FDCAF1B120FC0
:100BA100DCEB4A601AE517C394075013E51704FDFF
:100BB100AF19120FAEAF02120FDCAF03120FDC0937
:030BC100020AC560
:010BC400220E
:100BC500E52314540FF52304540FFFE539540FFEA4
:100BD500700BC3E5216480948450020521BE080B87
:100BE500D3E5216480947C40021521E539541FFE2C
:100BF500BE1018D3E5216480948040041521800B34
:100C0500C3E5216480948050020521C3E5216480F9
:100C15009483400974262FF8E624028037C3E52122
:100C250064809481400874262FF8E6048026D3E575
:100C3500216480947D500974262FF8E624FE8014E3
:100C4500D3E5216480947F742650062FF8E614803E
:100C5500032FF8E6FF74262523F8A6077426252317
:100C6500F8E6C36480947B500A74262523F876FB46
:100C750075210174262523F8E6D364809488400AFB
:0A0C850074262523F876087521FF78
:010C8F002242
:0B0D1C00120F2C120EB47B7FE4FDFFD1
:060D27008F0E8D0FA903E1
:100D2D00E4FAEAC394405063EAC3950E4058AF020B
:100D3D00120E64EF240EFD2522FBEDC3950F40200E
:100D4D00EDD399501BED540FFF7E80E4A80708806A
:100D5D0005CEC313CE13D8F9F5118E10ED120FCBAE
:100D6D00EBC3950F4020EBD399501BEB540FFF7E37
:100D7D0080E4A807088005CEC313CE13D8F9F5116A
:0B0D8D008E10EB120FCB0A0A020D2F94
:010D98002238
:0D100500C282208604D282D322D282C3226E
:0D101200C282208404D282D322D282C32263
:10080000753A32753B32753CF0C201E4F521F5369C
:10081000F523F50A7426250AF8E4F6050AE50AB474
:1008200010F2120EF1300011750B0FE53A24FCF5B1
:100830000CE53A2410F50D8008E4F50BF50C750D68
:100840007F300103020993120F2C120BC512100501
:10085000500CE53A9400400674FD253AF53A121022
:1008600012500DE53AC3947050067403253AF53AD8
:10087000C3E53C648094C050067403253CF53C05F8
:1008800039E539C394124018E4F5390538E5387074
:100890000205370536E53694144005E4F536B20016
:1008A000C3E53C648094C04021753CF07426252348
:1008B000F8E6240EF509E539C394125004AF3980E7
:1008C000027F00E50924082FF53B7F2D120E64EF0F
:1008D000240EF5092522FFE53A2404FDE433FCE566
:1008E00009FBC3ED9B7480F86C984013E53A240A29
:1008F000FDE433FCEFFBD3ED9B74806C984002D297
:1009000001AF3CEF3395E0FEEF240BFFE43EFED356
:10091000EF942CEE648094804046E53C648094B86B
:10092000503EE53B2402FFE433FEAD3A7C00ED246B
:100930000BFBEC33FAD3EB9FEE6480F8EA6480980B
:10094000401EE53B240BFFE433FEED2402FDEC33B7
:10095000FCC3ED9FEE6480F8EC6480985002D201F5
:10096000120EB4AB0DAD0CAF0B120D277A0D7BB18F
:1009700075120C850B1375142C850C15850D16AD91
:100980003CAF3B120A897A0D7B9975120C120A7AD8
:10099000020A690525E52460021524E52470461243
:1009A0000F2C7F3012101F7F8812101F7F47120FED
:1009B000DC7F41120FDC7F4D120FDC7F45120FDC14
:1009C0007F20120FDC7F4F120FDC7F56120FDC7F6F
:1009D00045120FDC7F52120FDC7F99120E097F3611
:1009E00012101F80FE7508F0C3E53A6480F8E50830
:1009F000648098502E120D1C120A73AF087A0D7B7A
:100A0000E9751210E4F51375143FF51575167F7D21
:100A100025120A897F237E00120F8E74042508F5A3
:100A20000880C5120D1C120A737A0D7BE97512102D
:100A3000E4F51375143FF51575167F7D25AF3A1251
:100A40000A897FB07E04120F8E753A32753B32757B
:100A50003CF0C201E4F521F523F50A7426250AF8D5
:100A6000E4F6050AE50AB410F27F127E00120F8E3A
:030A700002082554
:03000000020C905F
:0C0C9000787FE4F6D8FD75813C020CD79B
:100FE400EF8DF0A4A8F0CF8CF0A428CE8DF0A42E21
:020FF400FE22DB
:100C9C00020800E493A3F8E493A34003F68001F266
:100CAC0008DFF48029E493A3F85407240CC8C33359
:100CBC00C4540F4420C8834004F456800146F6DF28
:100CCC00E4800B0102040810204080900F67E47E42
:100CDC00019360BCA3FF543F30E509541FFEE4931D
:100CEC00A360010ECF54C025E060A840B8E493A3E4
:100CFC00FAE493A3F8E493A3C8C582C8CAC583CA0F
:100D0C00F0A3C8C582C8CAC583CADFE9DEE780BEC6
:010F8D000063
:00000001FF
