:10103900566F636520706572646575210054656E2D
:101049007465206E6F76616D656E746521000000B0
:02105900000095
:100D5300087D0003070E0FFE0E0A08920006091114
:100D63000E000000088A000415FF0E040404058524
:100D730000050607FF110800000000000000000046
:100D83000000000000000000113B00000000000014
:100D93000000000000000000000000024C000011F1
:100DA3002A200000000000000000000000000000F6
:100DB30000001119200000000000000000000000E6
:050DC30000000000002B
:100F1900D2927F017E00120F38C2920F120F38E968
:0F0F2900C454F0FFE590540F4FF590D2927F0122
:100F3800E4FDFCC3ED9FEC9E5015E4FBFA0BBB00EF
:0F0F4800010AEB64704A70F50DBD00010C80E4E6
:010F57002277
:060F58007B007A00799A8B
:060F5E008B5B8A5C895DDB
:100F6400E4FFFEAB5EAA5FA9608F828E83120AFD46
:100F7400F4AB5BAA5CA95D8F828E83120B3C0FBF1E
:090F840000010EEF64084E70DA62
:010F8D002241
:10105B00A907E954F0FFE590540F4FF590C2931296
:09106B000F19C2927F05020F3833
:10107400A907E954F0FFE590540F4FF590D293126D
:091084000F19C2927F05020F381A
:060FE9008B608A61896241
:100FEF00E4F563F564AB60AA61A9628564828563E9
:100FFF0083120AFDFF600D1210740564E56470E53D
:04100F00056380E114
:0110130022BA
:100F8E008F5B8D5C8B5D8A5E895FE55B7008E55CCF
:100F9E00540F4480800BE55BB4010AE55C540744B2
:0E0FAE00C0FF12105BAB5DAA5EA95F020FE9E7
:101014007F147E00120F387F0212105B7F2812109B
:101024005B7F0C12105B7F0612105B7F0112105B5A
:051034007F8002105B4B
:060ED0007B007A00799A14
:060ED6008B5B8A5C895D64
:100EDC00E4F55EF55FED33333354F82440FF121024
:100EEC005BE4F55EF55FAB5BAA5CA95D855F828513
:100EFC005E83120AFDFF121074055FE55F70020538
:0C0F0C005EC39408E55E6480948040DAC7
:010F180022B6
:090DC9007B007560207D117C00A7
:0A0DD2008B5B8A5C895D8C5E8D5F8F
:100DDC00E4FFFEE55F24FFFDE55E34FFFCC3EF9D01
:100DEC00EC6480F8EE648098501CAB5BAA5CA95D47
:100DFC008F828E83A3120AFD8F828E83120B3C0F7F
:100E0C00BF00010E80CDAB5BAA5CA95DE55F24FF42
:0E0E1C00FFE55E34FF8F82F583E560020B3C3C
:100E2A008E748F758B768A7789787C007D64120B35
:100E3A005E7C007D0A120B5EED2430120B2AAE7422
:100E4A00AF757C007D0A120B5E7C007D0A120B5E78
:100E5A00ED2430AB76AA77A978900001120B3CAE4C
:100E6A0074AF757C007D0A120B5EED2430AB76AA56
:090E7A0077A978900002020B3CFC
:060BE9008B5B8A5C895D54
:100BEF00E4F56DF56E786F7C00FD7BFF7A10795719
:100BFF00FE7F04120AD7E4F573A85DAC5CAD5BAB66
:100C0F0063AA64A965FE7F10120AD7A860AC5FAD16
:100C1F005EAB66AA67A9687E007F10120AD7E562ED
:100C2F0064014561700CAB5BAA5CA95D9000010487
:100C3F00800BAB5EAA5FA9609000017401120B3CA0
:100C4F00E56C456B604BE4F56DF56EAB5BAA5CA98B
:100C5F005D856E82856D83120AFD2485F8E6856EAB
:100C6F0082856D83120B3CAB5EAA5FA960856E8295
:100C7F00856D83120AFD2485F8E6856E82856D8366
:100C8F00120B3C056EE56E7002056D6410456D70BC
:100C9F00BA7B007A00796FAF6AAE69120E2AE55DF2
:100CAF00240DF9E4355CA801FCAD5B7B007A00797B
:080CBF006F7E007F04020AD7DA
:100FBC00120E83D3EF94FFEE941F7E0040047F014A
:100FCC0080027F00EF4E7012120E83D3EF94FFEE6F
:0C0FDC00943F40037F02227F03227F200D
:010FE80022E6
:09108D00C283C282C281C280222A
:10080000754E20E4F54FF550F553755401F555F547
:1008100056F557F558F559F55A121014E4F559F5EF
:100820005A7A007908120DC97A00793B120DC90570
:100830005AE55A70020559C39411E55964809480B1
:1008400040DF7B007A00797D7D01120ED67B007A35
:100850000079927D02120ED67B007A00798A7D03A0
:10086000120ED6755E00755F0075607D120F587DA3
:1008700005120ED0755E00755F00756092120F58FC
:100880007D06120ED0755E00755F0075608A120FCE
:10089000587B007A00799A7D07120ED67F8012105D
:1008A0005B12108DE4F551F552F54FF5503084068A
:1008B0003085032086067E007F0180047E007F0055
:1008C0008E558F56E5564555600BE55845577005D2
:1008D000F557755803C3E5509414E54F6480948030
:1008E000404CE55845576008E558155870021557B3
:1008F000E4F54FF550120FBC8F4E7B007A0079085B
:10090000E54EB402047F0280027F208F60120DCE7C
:100910007B007A00793BE54EB403047F0380027FBD
:10092000208F60120DCE0552E55270020551E5523E
:10093000240FFFE43551FEEF2550F550EE354FF50D
:100940004FE5584557700BE53C64206005E4F553CE
:10095000F554755E00755F00756019D3E558940015
:10096000E557648094807E0040047F0180027F0010
:100970008E618F6275630075640075650875660029
:1009800075670075683B85516985526A756B00E52E
:10099000525420F56C7B007A00792A120BE97B0017
:1009A0007A00792AE4FDFF120F8E7B007A00791914
:1009B000E4FD7F01120F8EE554455360030208AD3C
:1009C000E556455560030208AD7BFF7A107939FD85
:1009D000FF120F8E7BFF7A107946E4FD7F01120F24
:1009E0008EE55645557019308406308503208606FD
:1009F0007E007F0180047E007F008E558F5680E14F
:070A00007F1E7E00020F388B
:03000000020CC728
:0C0CC700787FE4F6D8FD7581A1020D0EC7
:100A0700E709F608DFFA8046E709F208DFFA803ED1
:100A170088828C83E709F0A3DFFA8032E309F608BE
:100A2700DFFA8078E309F208DFFA807088828C8326
:100A3700E309F0A3DFFA806489828A83E0A3F608DA
:100A4700DFFA805889828A83E0A3F208DFFA804CB4
:100A570080D280FA80C680D4806980F2803380108B
:100A670080A680EA809A80A880DA80E280CA8033F4
:100A770089828A83ECFAE493A3C8C582C8CCC5836C
:100A8700CCF0A3C8C582C8CCC583CCDFE9DEE7803C
:100A97000D89828A83E493A3F608DFF9ECFAA9F0BB
:100AA700EDFB2289828A83ECFAE0A3C8C582C8CC11
:100AB700C583CCF0A3C8C582C8CCC583CCDFEADE2A
:100AC700E880DB89828A83E493A3F208DFF980CC8C
:100AD70088F0EF60010E4E60C388F0ED2402B40485
:100AE7000050B9F582EB2402B4040050AF2323452C
:060AF7008223900A5773F0
:100AFD00BB010CE58229F582E5833AF583E02250AE
:100B0D0006E92582F8E622BBFE06E92582F8E222F7
:0D0B1D00E58229F582E5833AF583E4932211
:100B2A00BB010689828A83F0225002F722BBFE01AA
:020B3A00F322A4
:100B3C00F8BB010DE58229F582E5833AF583E8F0EF
:100B4C00225006E92582C8F622BBFE05E92582C89B
:020B5C00F22283
:100B5E00C2D5EC30E709B2D5E4C39DFDE49CFCEEB2
:100B6E0030E715B2D5E4C39FFFE49EFE120B94C38B
:100B7E00E49DFDE49CFC8003120B9430D507C3E486
:060B8E009FFFE49EFE2221
:100E8300AC79AD7AAE7BAF7C7810EC4D4E4F7004ED
:100E93007CA57DA5C3EC13FCED13FDEE13FEEF1350
:100EA300FF5010EC64CCFCED644CFDEE644EFEEFA1
:100EB30064CEFFD8DF8C798D7A8E7B8F7CEE547F66
:0D0EC300FE228E798F7A74A5F57BF57C22D6
:100CD300020800E493A3F8E493A34003F68001F22F
:100CE30008DFF48029E493A3F85407240CC8C33322
:100CF300C4540F4420C8834004F456800146F6DFF1
:100D0300E4800B0102040810204080900D53E47E20
:100D1300019360BCA3FF543F30E509541FFEE493E5
:100D2300A360010ECF54C025E060A840B8E493A3AC
:100D3300FAE493A3F8E493A3C8C582C8CAC583CAD7
:100D4300F0A3C8C582C8CAC583CADFE9DEE780BE8F
:010DC800002A
:100B9400BC000BBE0029EF8DF084FFADF022E4CC45
:100BA400F875F008EF2FFFEE33FEEC33FCEE9DEC0E
:100BB400984005FCEE9DFE0FD5F0E9E4CEFD22ED54
:100BC400F8F5F0EE8420D21CFEADF075F008EF2F9E
:100BD400FFED33FD4007985006D5F0F222C398FD8F
:050BE4000FD5F0EA222C
:00000001FF
