:100D8800070507161F0E0A0A040515151F04040493
:100D980000243C1E0E040000001C22262A32221CBD
:100DA800000818080808081C001C22020C10203E25
:100DB800001C22020C02221C00040C14243E040411
:100DC800003E203C0202221C001C22203C22221C45
:100DD800003E020408101010001C22221C22221CB3
:080DE800001C22221E02221C45
:0A0F0800C2A18FB0D2A27F017E00CB
:100F1200E4FDFCC3ED9FEC9E5015E4FBFA0BBB0015
:0F0F2200010AEB64704A70F50DBD00010C80E40C
:010F3100229D
:030F53004480FFD8
:0A0F5600C2A0120F08C2A2020F127F
:0A0F6C00D2A0120F08C2A2020F1259
:100ED800E4F9E9C39420E95007120F537F80800793
:100EE80024E0120F537F88120F56E4F554E4FF12E2
:0F0EF8000F6C0554E554C3941040F209B940D370
:010F070022C7
:100E9500D2A3C2A57F0A7E00120F12D2A57F3212FD
:100EA5000F127F30120F56120F0E7F0C120F5612B3
:100EB5000F0E120F567F0A7E00120F127F34120F8B
:100EC50056120F0E120ED87F36120F567F017E0076
:030ED500020F12F7
:080BF9008F548B558A56895771
:030C0100E4F558BF
:100C0400E5542558F55CF55DE4F55EE55CC3942098
:100C14004009E55C24E0F55D755E08E55D4480FF10
:100C2400120F56E55E4480FF120F56E4F559AB559A
:100C3400AA56A95775F002E559A4F58285F08312E6
:100C440008F6FF75F002E559A42401F582E435F0B5
:100C5400F5831208F6FEBF4407E558900D88803BE3
:100C6400BF4307E558900D908031BF4207E5589087
:100C74000D988027EFC394304026EFD39439502049
:100C840075F008EFA42420F582E5F0340CF583E533
:100C9400822558F582E43583F583E493F55A80037D
:100CA400E4F55ABE4407E558900D88803BBE4307DF
:100CB400E558900D908031BE4207E558900D98801C
:100CC40027EEC394304026EED39439502075F008B3
:100CD400EEA42420F582E5F0340CF583E582255852
:100CE400F582E43583F583E493F55B8003E4F55BF7
:100CF400AF5A120F6CAF5B120F6C0559E559C394D0
:060D0400085003020C324E
:0C0D0A000558E558C394085003020C047F
:010D160022BA
:0A0DF0008B548A5589568C578D5894
:100DFA00E4FFFEE55824FFFDE55734FFFCC3EF9DF1
:100E0A00EC6480F8EE648098501CAB54AA55A9563D
:100E1A008F828E83A31208F68F828E831209350F72
:100E2A00BF00010E80CDAB54AA55A956E55824FF40
:0E0E3A00FFE55734FF8F82F583E55902093535
:100D17008E548F558B568A578958C3E554648094EF
:100D2700805005E4F554F555AE54AF557C007D640D
:100D37001209577C007D0A120957ED2430AB56AAD9
:100D470057A958120923AE54AF557C007D0A1209E2
:100D5700577C007D0A120957ED2430AB56AA57A9D4
:100D670058900001120935AE54AF557C007D0A1228
:100D77000957ED2430AB56AA57A95890000202092B
:010D87003536
:100F3200120E48D3EF94FFEE943F4012120E48D3A4
:100F4200EF94FDEE945F40037F42227F43227F2095
:010F5200227C
:090F7600C283C282C281C2802242
:100A0E00E4F541F542F543754405F545F546F547E0
:100A1E00754828F549F54AD200C201754B20120ED1
:100A2E0095120F767E007F107D207B007A00793143
:100A3E0012098D7E007F107D207B007A00792112B5
:100A4E00098D308406308503208603D38001C3923E
:100A5E00022000373002EBD200E4F541F542F545B5
:100A6E00F546F549F54AFE7F107D20FB7A00793177
:100A7E0012098D7E007F107D207B007A0079211275
:100A8E00098D7FC87E00120F1280B7A2029201302C
:100A9E00011EE546154670021545D3E5469400E560
:100AAE004564809480501EE4F545F546C2008015DD
:100ABE00C3E54694E7E5456480948350080546E512
:100ACE004670020545AE45AF467C007D3212095791
:100ADE00EF7802C333CE33CED8F9FFC374289FF517
:100AEE0048E49EF547C3E548940FE547648094803B
:100AFE00500675470075480FC3E5429414E54164EE
:100B0E00809480405DE4F541F542FB7A00793175C1
:100B1E0059207D10FC120DF07B007A007921755959
:100B2E00207D107C00120DF0D3E54A9400E5496457
:100B3E00809480400AE54A154A7027154980231291
:100B4E000F328F4BE54BB4420B7540427549007521
:100B5E004A04800EE54BB443097530437549007560
:100B6E004A03E5442542F542E5433541F54120016E
:100B7E0007E522B44302C200300107E532B4420257
:100B8E00C20085324C85224D853D4E853E4F853FB8
:100B9E005030010575324480037522447B007A0083
:100BAE007951AF46AE45120D17783D7C007D007B26
:100BBE00007A0079517E007F031208D07B007A0004
:100BCE0079317F14120BF97B007A0079217F301274
:100BDE000BF9854C32854D22854E3D854F3E855015
:0B0BEE003FAF48AE47120F12020A5042
:03000000020F608C
:0C0F6000787FE4F6D8FD75815E020A0E71
:10080000E709F608DFFA8046E709F208DFFA803EDA
:1008100088828C83E709F0A3DFFA8032E309F608C7
:10082000DFFA8078E309F208DFFA807088828C832F
:10083000E309F0A3DFFA806489828A83E0A3F608E3
:10084000DFFA805889828A83E0A3F208DFFA804CBD
:1008500080D280FA80C680D4806980F28033801094
:1008600080A680EA809A80A880DA80E280CA8033FD
:1008700089828A83ECFAE493A3C8C582C8CCC58375
:10088000CCF0A3C8C582C8CCC583CCDFE9DEE78045
:100890000D89828A83E493A3F608DFF9ECFAA9F0C4
:1008A000EDFB2289828A83ECFAE0A3C8C582C8CC1A
:1008B000C583CCF0A3C8C582C8CCC583CCDFEADE33
:1008C000E880DB89828A83E493A3F208DFF980CC95
:1008D00088F0EF60010E4E60C388F0ED2402B4048E
:1008E0000050B9F582EB2402B4040050AF23234535
:0608F00082239008507302
:1008F600BB010CE58229F582E5833AF583E02250B7
:1009060006E92582F8E622BBFE06E92582F8E22200
:0D091600E58229F582E5833AF583E493221A
:10092300BB010689828A83F0225002F722BBFE01B3
:02093300F322AD
:10093500F8BB010DE58229F582E5833AF583E8F0F8
:10094500225006E92582C8F622BBFE05E92582C8A4
:02095500F2228C
:10095700C2D5EC30E709B2D5E4C39DFDE49CFCEEBB
:1009670030E715B2D5E4C39FFFE49EFE1209B9C371
:10097700E49DFDE49CFC80031209B930D507C3E46C
:060987009FFFE49EFE222A
:100E4800AC08AD09AE0AAF0B7810EC4D4E4F7004EC
:100E58007CA57DA5C3EC13FCED13FDEE13FEEF138B
:100E6800FF5010EC64CCFCED644CFDEE644EFEEFDC
:100E780064CEFFD8DF8C088D098E0A8F0BEE547F65
:0D0E8800FE228E088F0974A5F50AF50B22D5
:10098D00EF4E6012EF60010EEDBB010B89828A8381
:10099D00F0A3DFFCDEFA2289F05007F709DFFCA98E
:0C09AD00F022BBFEFCF309DFFCA9F022E5
:1009B900BC000BBE0029EF8DF084FFADF022E4CC22
:1009C900F875F008EF2FFFEE33FEEC33FCEE9DECEB
:1009D900984005FCEE9DFE0FD5F0E9E4CEFD22ED31
:1009E900F8F5F0EE8420D21CFEADF075F008EF2F7B
:1009F900FFED33FD4007985006D5F0F222C398FD6C
:050A09000FD5F0EA2208
:00000001FF
